{
  "contractName": "Ballot",
  "abi": [
    {
      "constant": true,
      "inputs": [
        {
          "name": "",
          "type": "uint256"
        }
      ],
      "name": "proposals",
      "outputs": [
        {
          "name": "name",
          "type": "bytes32"
        },
        {
          "name": "voteCount",
          "type": "uint256"
        },
        {
          "name": "index",
          "type": "uint256"
        }
      ],
      "payable": false,
      "stateMutability": "view",
      "type": "function"
    },
    {
      "constant": true,
      "inputs": [],
      "name": "chairperson",
      "outputs": [
        {
          "name": "",
          "type": "address"
        }
      ],
      "payable": false,
      "stateMutability": "view",
      "type": "function"
    },
    {
      "constant": true,
      "inputs": [],
      "name": "voterCount",
      "outputs": [
        {
          "name": "",
          "type": "uint256"
        }
      ],
      "payable": false,
      "stateMutability": "view",
      "type": "function"
    },
    {
      "constant": true,
      "inputs": [],
      "name": "approvalCount",
      "outputs": [
        {
          "name": "",
          "type": "uint256"
        }
      ],
      "payable": false,
      "stateMutability": "view",
      "type": "function"
    },
    {
      "constant": true,
      "inputs": [
        {
          "name": "",
          "type": "address"
        }
      ],
      "name": "voters",
      "outputs": [
        {
          "name": "weight",
          "type": "uint256"
        },
        {
          "name": "voted",
          "type": "bool"
        },
        {
          "name": "delegate",
          "type": "address"
        },
        {
          "name": "vote",
          "type": "uint256"
        },
        {
          "name": "check",
          "type": "uint256"
        }
      ],
      "payable": false,
      "stateMutability": "view",
      "type": "function"
    },
    {
      "constant": true,
      "inputs": [],
      "name": "proposalCount",
      "outputs": [
        {
          "name": "",
          "type": "uint256"
        }
      ],
      "payable": false,
      "stateMutability": "view",
      "type": "function"
    },
    {
      "constant": true,
      "inputs": [
        {
          "name": "",
          "type": "uint256"
        }
      ],
      "name": "ids",
      "outputs": [
        {
          "name": "",
          "type": "uint256"
        }
      ],
      "payable": false,
      "stateMutability": "view",
      "type": "function"
    },
    {
      "inputs": [
        {
          "name": "proposalNames",
          "type": "bytes32[]"
        },
        {
          "name": "proposalIndexs",
          "type": "uint256[]"
        }
      ],
      "payable": false,
      "stateMutability": "nonpayable",
      "type": "constructor"
    },
    {
      "constant": false,
      "inputs": [
        {
          "name": "voter",
          "type": "address"
        }
      ],
      "name": "giveRightToVote",
      "outputs": [],
      "payable": false,
      "stateMutability": "nonpayable",
      "type": "function"
    },
    {
      "constant": false,
      "inputs": [
        {
          "name": "_to",
          "type": "address"
        }
      ],
      "name": "delegate",
      "outputs": [],
      "payable": false,
      "stateMutability": "nonpayable",
      "type": "function"
    },
    {
      "constant": false,
      "inputs": [
        {
          "name": "proposal",
          "type": "uint256"
        }
      ],
      "name": "vote",
      "outputs": [],
      "payable": false,
      "stateMutability": "nonpayable",
      "type": "function"
    },
    {
      "constant": true,
      "inputs": [],
      "name": "winningProposal",
      "outputs": [
        {
          "name": "winningProposal_",
          "type": "uint256"
        }
      ],
      "payable": false,
      "stateMutability": "view",
      "type": "function"
    },
    {
      "constant": true,
      "inputs": [],
      "name": "winnerName",
      "outputs": [
        {
          "name": "winnerName_",
          "type": "bytes32"
        }
      ],
      "payable": false,
      "stateMutability": "view",
      "type": "function"
    }
  ],
  "bytecode": "0x608060405234801561001057600080fd5b50604051610cee380380610cee83398101806040528101908080518201929190602001805182019291905050506000336000806101000a81548173ffffffffffffffffffffffffffffffffffffffff021916908373ffffffffffffffffffffffffffffffffffffffff16021790555060018060008060009054906101000a900473ffffffffffffffffffffffffffffffffffffffff1673ffffffffffffffffffffffffffffffffffffffff1673ffffffffffffffffffffffffffffffffffffffff16815260200190815260200160002060000181905550600090505b82518110156101e6576003606060405190810160405280858481518110151561011157fe5b9060200190602002015160001916815260200160008152602001848481518110151561013957fe5b9060200190602002015181525090806001815401808255809150509060018203906000526020600020906003020160009091929091909150600082015181600001906000191690556020820151816001015560408201518160020155505050806002600084848151811015156101ab57fe5b9060200190602002015181526020019081526020016000208190555060046000815480929190600101919050555080806001019150506100ec565b505050610af6806101f86000396000f3006080604052600436106100ba576000357c0100000000000000000000000000000000000000000000000000000000900463ffffffff1680630121b93f146100bf578063013cf08b146100ec5780632e4176cf1461014357806342169e481461019a5780635c19a95c146101c5578063609ff1bd146102085780636884d0a6146102335780639e7b8d611461025e578063a3ec138d146102a1578063da35c66414610344578063e2ba53f01461036f578063fac333ac146103a2575b600080fd5b3480156100cb57600080fd5b506100ea600480360381019080803590602001909291905050506103e3565b005b3480156100f857600080fd5b50610117600480360381019080803590602001909291905050506104e7565b604051808460001916600019168152602001838152602001828152602001935050505060405180910390f35b34801561014f57600080fd5b50610158610520565b604051808273ffffffffffffffffffffffffffffffffffffffff1673ffffffffffffffffffffffffffffffffffffffff16815260200191505060405180910390f35b3480156101a657600080fd5b506101af610545565b6040518082815260200191505060405180910390f35b3480156101d157600080fd5b50610206600480360381019080803573ffffffffffffffffffffffffffffffffffffffff16906020019092919050505061054b565b005b34801561021457600080fd5b5061021d610835565b6040518082815260200191505060405180910390f35b34801561023f57600080fd5b506102486108b0565b6040518082815260200191505060405180910390f35b34801561026a57600080fd5b5061029f600480360381019080803573ffffffffffffffffffffffffffffffffffffffff1690602001909291905050506108b6565b005b3480156102ad57600080fd5b506102e2600480360381019080803573ffffffffffffffffffffffffffffffffffffffff169060200190929190505050610a1a565b60405180868152602001851515151581526020018473ffffffffffffffffffffffffffffffffffffffff1673ffffffffffffffffffffffffffffffffffffffff1681526020018381526020018281526020019550505050505060405180910390f35b34801561035057600080fd5b50610359610a7d565b6040518082815260200191505060405180910390f35b34801561037b57600080fd5b50610384610a83565b60405180826000191660001916815260200191505060405180910390f35b3480156103ae57600080fd5b506103cd60048036038101908080359060200190929190505050610ab2565b6040518082815260200191505060405180910390f35b6000600160003373ffffffffffffffffffffffffffffffffffffffff1673ffffffffffffffffffffffffffffffffffffffff16815260200190815260200160002090508060010160009054906101000a900460ff1615151561044457600080fd5b60038160030154141561046f5760018160010160006101000a81548160ff0219169083151502179055505b81816002018190555080600001546003600260008581526020019081526020016000205481548110151561049f57fe5b90600052602060002090600302016001016000828254019250508190555060056000815480929190600101919050555080600301600081548092919060010191905055505050565b6003818154811015156104f657fe5b90600052602060002090600302016000915090508060000154908060010154908060020154905083565b6000809054906101000a900473ffffffffffffffffffffffffffffffffffffffff1681565b60055481565b600080600160003373ffffffffffffffffffffffffffffffffffffffff1673ffffffffffffffffffffffffffffffffffffffff16815260200190815260200160002091508160010160009054906101000a900460ff161515156105ad57600080fd5b3373ffffffffffffffffffffffffffffffffffffffff168373ffffffffffffffffffffffffffffffffffffffff16141515156105e857600080fd5b5b600073ffffffffffffffffffffffffffffffffffffffff16600160008573ffffffffffffffffffffffffffffffffffffffff1673ffffffffffffffffffffffffffffffffffffffff16815260200190815260200160002060010160019054906101000a900473ffffffffffffffffffffffffffffffffffffffff1673ffffffffffffffffffffffffffffffffffffffff1614151561072657600160008473ffffffffffffffffffffffffffffffffffffffff1673ffffffffffffffffffffffffffffffffffffffff16815260200190815260200160002060010160019054906101000a900473ffffffffffffffffffffffffffffffffffffffff1692503373ffffffffffffffffffffffffffffffffffffffff168373ffffffffffffffffffffffffffffffffffffffff161415151561072157600080fd5b6105e9565b60018260010160006101000a81548160ff021916908315150217905550828260010160016101000a81548173ffffffffffffffffffffffffffffffffffffffff021916908373ffffffffffffffffffffffffffffffffffffffff160217905550600160008473ffffffffffffffffffffffffffffffffffffffff1673ffffffffffffffffffffffffffffffffffffffff16815260200190815260200160002090508060010160009054906101000a900460ff1615610819578160000154600382600201548154811015156107f657fe5b906000526020600020906003020160010160008282540192505081905550610830565b816000015481600001600082825401925050819055505b505050565b6000806000809150600090505b6003805490508110156108ab578160038281548110151561085f57fe5b906000526020600020906003020160010154111561089e5760038181548110151561088657fe5b90600052602060002090600302016001015491508092505b8080600101915050610842565b505090565b60065481565b6000809054906101000a900473ffffffffffffffffffffffffffffffffffffffff1673ffffffffffffffffffffffffffffffffffffffff163373ffffffffffffffffffffffffffffffffffffffff1614151561091157600080fd5b600160008273ffffffffffffffffffffffffffffffffffffffff1673ffffffffffffffffffffffffffffffffffffffff16815260200190815260200160002060010160009054906101000a900460ff1615151561096d57600080fd5b6000600160008373ffffffffffffffffffffffffffffffffffffffff1673ffffffffffffffffffffffffffffffffffffffff168152602001908152602001600020600001541415156109be57600080fd5b60018060008373ffffffffffffffffffffffffffffffffffffffff1673ffffffffffffffffffffffffffffffffffffffff1681526020019081526020016000206000018190555060066000815480929190600101919050555050565b60016020528060005260406000206000915090508060000154908060010160009054906101000a900460ff16908060010160019054906101000a900473ffffffffffffffffffffffffffffffffffffffff16908060020154908060030154905085565b60045481565b60006003610a8f610835565b815481101515610a9b57fe5b906000526020600020906003020160000154905090565b600260205280600052604060002060009150905054815600a165627a7a72305820cb4d049c9f1d35f8e1f8ba107b1000d5b570f7ffc8e00908c795153d8939039d0029",
  "source": "pragma solidity ^0.4.22;\n\n\n\ncontract Ballot{ //Bỏ phiếu\n    struct Voter{ //Người bỏ phiếu\n        uint weight; //Trọng số: có quyền bỏ phiếu hay không?\n        bool voted; //Đã bỏ phiếu chưa?\n        address delegate; //Có ủy quyền lá phiếu cho ai không?\n        uint vote; //Chỉ số (đối tượng được bầu) Voter bầu chọn\n        uint check;\n    }\n    struct Proposal{ //Đối tượng được bầu chọn\n        bytes32 name; //Tên đối tượng\n        uint voteCount; //Lượt bầu chọn cho đối tượng\n        uint index;\n    } \n    address public chairperson; //Chủ tịch hồi đồng bỏ phiếu\n    mapping (address=>Voter) public voters; //Tra cứu địa chỉ và Người bỏ phiếu \n    mapping (uint=>uint) public ids;\n    Proposal[] public proposals; // danh sách các đối tượng được bầu chọn\n   \n    uint public proposalCount;\n    uint public voterCount;\n    uint public approvalCount;\n    \n\n    constructor(bytes32[] proposalNames, uint[] proposalIndexs) public{ //Khởi tạo n đối tượng được bầu chọn\n        chairperson = msg.sender; // Chủ tịch hội đồng là người tạo ra cuộc bầu chọn\n        voters[chairperson].weight=1; //Trọng số của ông chủ tịch là 1\n        for(uint i=0; i<proposalNames.length; i++){ //Duyệt qua danh sách các đối tượng được bầu chọn\n            proposals.push(Proposal({ //Thêm nó vào array các struct, với mỗi phần tử có tên và số lượt vote\n                name: proposalNames[i],\n                voteCount:0,\n                index: proposalIndexs[i]\n            }));\n           \n            ids[proposalIndexs[i]]=i;\n            proposalCount++;\n        }\n    }\n    \n    function giveRightToVote(address voter) public{ //Trao quyền bầu chọn cho một voter\n        require(msg.sender==chairperson); //Yêu cầu người trao quyền này là ông chủ tịch\n        require(!voters[voter].voted); // yêu cầu ông voter này chưa bỏ phiếu lần nào \n        require(voters[voter].weight==0); // yêu cầu trọng số của ông voter này là 0\n        voters[voter].weight=1; //Trọng số đặt là 1     \n        approvalCount++;\n        \n    }\n    \n    function delegate(address _to) public{\n        //Uỷ quyền cho ông \"to\"\n        Voter storage sender=voters[msg.sender]; //Lưu ý, địa chỉ người ủy quyền phải lưu trữ trên blockchain\n        require(!sender.voted); //Yêu cầu người ủy quyền chưa bỏ phiếu lần nào\n        require(_to!=msg.sender); // Yêu cầu người được ủy quyền không phải là người ủy quyền\n        while (voters[_to].delegate!=address(0)){ //Nếu người được ủy quyền đó có ủy quyền cho một người khác nữa\n            _to=voters[_to].delegate; //Lúc này sẽ ủy quyền cho người khác nữa \"được sự ủy quyền\" từ \"người được ủy quyền\"\n            require(_to!=msg.sender); //Yêu cầu \"người nhận sự ủy quyền\" này khác với \"người ủy quyền ban đầu\"\n        }\n        sender.voted=true; //Đánh dấu đã bỏ phiếu\n        sender.delegate=_to; //Đánh dấu địa chỉ người được ủy quyền\n        Voter storage delegate_ = voters[_to]; \n        if(delegate_.voted){ //Nếu người được ủy quyền này đã sử dụng số lượt bỏ phiếu của mình\n            proposals[delegate_.vote].voteCount+=sender.weight; // thì proposal được ông này bầu chọn tăng thêm một lượng là trọng số của sender\n        } else{\n            delegate_.weight+=sender.weight; //ngược lại thì trọng số người được ủy quền tăng thêm một lượng là trọng số của sender\n        }\n    }\n    \n    function vote(uint proposal) public{ //Bỏ phiếu\n        Voter storage sender = voters[msg.sender];\n        require(!sender.voted); //Yêu cầu người này chưa bỏ phiếu lần nào\n        if (sender.check==3){\n        sender.voted=true;\n        }\n        //Đánh dấu đã bỏ phiếu\n        sender.vote=proposal; //Đánh dấu bỏ phiếu cho proposal có chỉ số tương ứng  \n        proposals[ids[proposal]].voteCount+=sender.weight;  //Tăng số lượt vote của proposal này\n        voterCount++;\n        sender.check++;\n    \n    }\n    \n    function winningProposal()public view returns (uint winningProposal_){ //Xem proposal chiến thắng\n        uint winningVoteCount=0; \n        for(uint p=0; p<proposals.length; p++){ //Duyệt qua danh sách các proposal\n            if (proposals[p].voteCount>winningVoteCount){ \n                winningVoteCount=proposals[p].voteCount;\n                winningProposal_=p; //Tìm ra proposal tương ứng vị trí proposal p có số lượt vote cao nhất\n            }\n        }\n    }\n    \n    function winnerName() public view returns(bytes32 winnerName_){ //Xem tên proposal chiến thắng\n        winnerName_=proposals[winningProposal()].name;\n    }\n\n}",
  "sourcePath": "/home/ferez96/Projects/BlockchainVoting/contracts/ballet.sol",
  "compiler": {
    "name": "solc",
    "version": "0.4.24+commit.e67f0147.Emscripten.clang"
  },
  "schemaVersion": "2.0.1",
  "updatedAt": "2018-09-30T07:31:32.908Z"
}